{
  "_format": "hh-sol-artifact-1",
  "contractName": "Voting",
  "sourceName": "contracts/Voting.sol",
  "abi": [
    {
      "inputs": [],
      "stateMutability": "nonpayable",
      "type": "constructor"
    },
    {
      "anonymous": false,
      "inputs": [
        {
          "indexed": false,
          "internalType": "address",
          "name": "candidateAddress",
          "type": "address"
        },
        {
          "indexed": false,
          "internalType": "uint256",
          "name": "electionId",
          "type": "uint256"
        }
      ],
      "name": "CandidateAdded",
      "type": "event"
    },
    {
      "anonymous": false,
      "inputs": [
        {
          "indexed": false,
          "internalType": "uint256",
          "name": "electionId",
          "type": "uint256"
        }
      ],
      "name": "ElectionAdded",
      "type": "event"
    },
    {
      "anonymous": false,
      "inputs": [
        {
          "indexed": false,
          "internalType": "address",
          "name": "candidate",
          "type": "address"
        }
      ],
      "name": "SignedAsCandidate",
      "type": "event"
    },
    {
      "anonymous": false,
      "inputs": [
        {
          "indexed": false,
          "internalType": "address",
          "name": "voter",
          "type": "address"
        },
        {
          "indexed": false,
          "internalType": "address",
          "name": "candidate",
          "type": "address"
        },
        {
          "indexed": false,
          "internalType": "uint256",
          "name": "electionId",
          "type": "uint256"
        }
      ],
      "name": "VotedForCandidate",
      "type": "event"
    },
    {
      "inputs": [],
      "name": "_electionCounter",
      "outputs": [
        {
          "internalType": "uint256",
          "name": "_value",
          "type": "uint256"
        }
      ],
      "stateMutability": "view",
      "type": "function"
    },
    {
      "inputs": [
        {
          "internalType": "address",
          "name": "candidateAddress",
          "type": "address"
        },
        {
          "internalType": "uint256",
          "name": "electionId",
          "type": "uint256"
        }
      ],
      "name": "candidateIsInElection",
      "outputs": [
        {
          "internalType": "bool",
          "name": "",
          "type": "bool"
        }
      ],
      "stateMutability": "view",
      "type": "function"
    },
    {
      "inputs": [
        {
          "internalType": "address",
          "name": "",
          "type": "address"
        }
      ],
      "name": "candidates",
      "outputs": [
        {
          "internalType": "string",
          "name": "name",
          "type": "string"
        },
        {
          "internalType": "string",
          "name": "surname",
          "type": "string"
        }
      ],
      "stateMutability": "view",
      "type": "function"
    },
    {
      "inputs": [
        {
          "internalType": "uint256",
          "name": "",
          "type": "uint256"
        }
      ],
      "name": "elections",
      "outputs": [
        {
          "internalType": "string",
          "name": "electionName",
          "type": "string"
        },
        {
          "internalType": "uint256",
          "name": "electionStart",
          "type": "uint256"
        },
        {
          "internalType": "uint256",
          "name": "registrationPeriod",
          "type": "uint256"
        },
        {
          "internalType": "uint256",
          "name": "votingPeriod",
          "type": "uint256"
        },
        {
          "internalType": "uint256",
          "name": "endingTime",
          "type": "uint256"
        }
      ],
      "stateMutability": "view",
      "type": "function"
    },
    {
      "inputs": [
        {
          "internalType": "address",
          "name": "candidateAddress",
          "type": "address"
        },
        {
          "internalType": "uint256",
          "name": "electionId",
          "type": "uint256"
        }
      ],
      "name": "getCandidateVotes",
      "outputs": [
        {
          "internalType": "uint256",
          "name": "",
          "type": "uint256"
        }
      ],
      "stateMutability": "view",
      "type": "function"
    },
    {
      "inputs": [],
      "name": "getTotalElections",
      "outputs": [
        {
          "internalType": "uint256",
          "name": "",
          "type": "uint256"
        }
      ],
      "stateMutability": "nonpayable",
      "type": "function"
    },
    {
      "inputs": [
        {
          "internalType": "uint256",
          "name": "electionId",
          "type": "uint256"
        }
      ],
      "name": "registerToElection",
      "outputs": [],
      "stateMutability": "nonpayable",
      "type": "function"
    },
    {
      "inputs": [
        {
          "internalType": "string",
          "name": "name",
          "type": "string"
        },
        {
          "internalType": "string",
          "name": "surname",
          "type": "string"
        }
      ],
      "name": "signUpAsCandidate",
      "outputs": [],
      "stateMutability": "nonpayable",
      "type": "function"
    },
    {
      "inputs": [
        {
          "internalType": "string",
          "name": "electionName",
          "type": "string"
        },
        {
          "internalType": "uint256",
          "name": "registrationPeriod",
          "type": "uint256"
        },
        {
          "internalType": "uint256",
          "name": "votingPeriod",
          "type": "uint256"
        },
        {
          "internalType": "uint256",
          "name": "endingTime",
          "type": "uint256"
        }
      ],
      "name": "startElection",
      "outputs": [],
      "stateMutability": "nonpayable",
      "type": "function"
    },
    {
      "inputs": [
        {
          "internalType": "address",
          "name": "candidateAddress",
          "type": "address"
        },
        {
          "internalType": "uint256",
          "name": "electionId",
          "type": "uint256"
        }
      ],
      "name": "voteForCandidate",
      "outputs": [],
      "stateMutability": "nonpayable",
      "type": "function"
    }
  ],
  "bytecode": "0x608060405234801561001057600080fd5b50611b2a806100206000396000f3fe608060405234801561001057600080fd5b506004361061009e5760003560e01c8063a85144f411610066578063a85144f414610172578063a8ce14571461018e578063a9392e0c146101aa578063d3304958146101c8578063d34e6494146101f85761009e565b806352ca14b2146100a35780635e6fef01146100d3578063635e2caa146101075780636c9f9d49146101235780638ab66a9014610141575b600080fd5b6100bd60048036038101906100b89190611118565b610214565b6040516100ca9190611609565b60405180910390f35b6100ed60048036038101906100e8919061123b565b61026f565b6040516100fe9594939291906114af565b60405180910390f35b610121600480360381019061011c9190611154565b61032d565b005b61012b61057b565b6040516101389190611609565b60405180910390f35b61015b600480360381019061015691906110ef565b610587565b604051610169929190611478565b60405180910390f35b61018c60048036038101906101879190611118565b6106bb565b005b6101a860048036038101906101a3919061123b565b610ac8565b005b6101b2610e0d565b6040516101bf9190611609565b60405180910390f35b6101e260048036038101906101dd9190611118565b610e1e565b6040516101ef919061145d565b60405180910390f35b610212600480360381019061020d91906111c0565b610e86565b005b6000600360008473ffffffffffffffffffffffffffffffffffffffff1673ffffffffffffffffffffffffffffffffffffffff168152602001908152602001600020600083815260200190815260200160002054905092915050565b600660205280600052604060002060009150905080600001805461029290611776565b80601f01602080910402602001604051908101604052809291908181526020018280546102be90611776565b801561030b5780601f106102e05761010080835404028352916020019161030b565b820191906000526020600020905b8154815290600101906020018083116102ee57829003601f168201915b5050505050908060010154908060020154908060030154908060040154905085565b33600080156103c757600260008373ffffffffffffffffffffffffffffffffffffffff1673ffffffffffffffffffffffffffffffffffffffff16815260200190815260200160002060009054906101000a900460ff166103c2576040517f08c379a00000000000000000000000000000000000000000000000000000000081526004016103b9906115a9565b60405180910390fd5b610455565b600260008373ffffffffffffffffffffffffffffffffffffffff1673ffffffffffffffffffffffffffffffffffffffff16815260200190815260200160002060009054906101000a900460ff1615610454576040517f08c379a000000000000000000000000000000000000000000000000000000000815260040161044b90611509565b60405180910390fd5b5b6001600260003373ffffffffffffffffffffffffffffffffffffffff1673ffffffffffffffffffffffffffffffffffffffff16815260200190815260200160002060006101000a81548160ff021916908315150217905550604051806040016040528085815260200184815250600760003373ffffffffffffffffffffffffffffffffffffffff1673ffffffffffffffffffffffffffffffffffffffff168152602001908152602001600020600082015181600001908051906020019061051d929190610fba565b50602082015181600101908051906020019061053a929190610fba565b509050507f8297da8dab4bf97ad720cb88f0acf97409a610e95483cf3de20a6d3c475c106e3360405161056d91906113e2565b60405180910390a150505050565b60008060000154905081565b60076020528060005260406000206000915090508060000180546105aa90611776565b80601f01602080910402602001604051908101604052809291908181526020018280546105d690611776565b80156106235780601f106105f857610100808354040283529160200191610623565b820191906000526020600020905b81548152906001019060200180831161060657829003601f168201915b50505050509080600101805461063890611776565b80601f016020809104026020016040519081016040528092919081815260200182805461066490611776565b80156106b15780601f10610686576101008083540402835291602001916106b1565b820191906000526020600020905b81548152906001019060200180831161069457829003601f168201915b5050505050905082565b816001801561075557600260008373ffffffffffffffffffffffffffffffffffffffff1673ffffffffffffffffffffffffffffffffffffffff16815260200190815260200160002060009054906101000a900460ff16610750576040517f08c379a0000000000000000000000000000000000000000000000000000000008152600401610747906115a9565b60405180910390fd5b6107e3565b600260008373ffffffffffffffffffffffffffffffffffffffff1673ffffffffffffffffffffffffffffffffffffffff16815260200190815260200160002060009054906101000a900460ff16156107e2576040517f08c379a00000000000000000000000000000000000000000000000000000000081526004016107d990611509565b60405180910390fd5b5b6006600084815260200190815260200160002060030154600660008581526020019081526020016000206002015460066000868152602001908152602001600020600101546108329190611696565b61083c9190611696565b421061087d576040517f08c379a0000000000000000000000000000000000000000000000000000000008152600401610874906115c9565b60405180910390fd5b600460003373ffffffffffffffffffffffffffffffffffffffff1673ffffffffffffffffffffffffffffffffffffffff168152602001908152602001600020600084815260200190815260200160002060009054906101000a900460ff161561091b576040517f08c379a000000000000000000000000000000000000000000000000000000000815260040161091290611529565b60405180910390fd5b600160008573ffffffffffffffffffffffffffffffffffffffff1673ffffffffffffffffffffffffffffffffffffffff168152602001908152602001600020600084815260200190815260200160002060009054906101000a900460ff166109b8576040517f08c379a00000000000000000000000000000000000000000000000000000000081526004016109af90611569565b60405180910390fd5b600360008573ffffffffffffffffffffffffffffffffffffffff1673ffffffffffffffffffffffffffffffffffffffff16815260200190815260200160002060008481526020019081526020016000206000815480929190610a19906117d9565b91905055506001600460003373ffffffffffffffffffffffffffffffffffffffff1673ffffffffffffffffffffffffffffffffffffffff168152602001908152602001600020600085815260200190815260200160002060006101000a81548160ff0219169083151502179055507f15ac61fb53be5e565435ec1280e1bc6bf3592d32144c0e698ec8a4c6aeafbbfd338585604051610aba939291906113fd565b60405180910390a150505050565b3360018015610b6257600260008373ffffffffffffffffffffffffffffffffffffffff1673ffffffffffffffffffffffffffffffffffffffff16815260200190815260200160002060009054906101000a900460ff16610b5d576040517f08c379a0000000000000000000000000000000000000000000000000000000008152600401610b54906115a9565b60405180910390fd5b610bf0565b600260008373ffffffffffffffffffffffffffffffffffffffff1673ffffffffffffffffffffffffffffffffffffffff16815260200190815260200160002060009054906101000a900460ff1615610bef576040517f08c379a0000000000000000000000000000000000000000000000000000000008152600401610be690611509565b60405180910390fd5b5b6008600084815260200190815260200160002060009054906101000a900460ff16610c50576040517f08c379a0000000000000000000000000000000000000000000000000000000008152600401610c4790611549565b60405180910390fd5b60066000848152602001908152602001600020600201546006600085815260200190815260200160002060010154610c889190611696565b4210610cc9576040517f08c379a0000000000000000000000000000000000000000000000000000000008152600401610cc0906115e9565b60405180910390fd5b600160003373ffffffffffffffffffffffffffffffffffffffff1673ffffffffffffffffffffffffffffffffffffffff168152602001908152602001600020600084815260200190815260200160002060009054906101000a900460ff1615610d67576040517f08c379a0000000000000000000000000000000000000000000000000000000008152600401610d5e90611589565b60405180910390fd5b60018060003373ffffffffffffffffffffffffffffffffffffffff1673ffffffffffffffffffffffffffffffffffffffff168152602001908152602001600020600085815260200190815260200160002060006101000a81548160ff0219169083151502179055507f32581d4a78c1456ab6ce9fb0954e9ce683965a580b3b21841367c105dad7a3133384604051610e00929190611434565b60405180910390a1505050565b6000610e196000610f96565b905090565b6000600160008473ffffffffffffffffffffffffffffffffffffffff1673ffffffffffffffffffffffffffffffffffffffff168152602001908152602001600020600083815260200190815260200160002060009054906101000a900460ff16905092915050565b6040518060a001604052808581526020014281526020018481526020018381526020018281525060066000610ebb6000610f96565b81526020019081526020016000206000820151816000019080519060200190610ee5929190610fba565b5060208201518160010155604082015181600201556060820151816003015560808201518160040155905050600160086000610f216000610f96565b815260200190815260200160002060006101000a81548160ff0219169083151502179055507f1bf15a77976c7cfe0328ab6cf270def21d86b57877ccbbb36de31b545d40dea2610f716000610f96565b604051610f7e9190611609565b60405180910390a1610f906000610fa4565b50505050565b600081600001549050919050565b6001816000016000828254019250508190555050565b828054610fc690611776565b90600052602060002090601f016020900481019282610fe8576000855561102f565b82601f1061100157805160ff191683800117855561102f565b8280016001018555821561102f579182015b8281111561102e578251825591602001919060010190611013565b5b50905061103c9190611040565b5090565b5b80821115611059576000816000905550600101611041565b5090565b600061107061106b84611649565b611624565b90508281526020810184848401111561108857600080fd5b611093848285611734565b509392505050565b6000813590506110aa81611ac6565b92915050565b600082601f8301126110c157600080fd5b81356110d184826020860161105d565b91505092915050565b6000813590506110e981611add565b92915050565b60006020828403121561110157600080fd5b600061110f8482850161109b565b91505092915050565b6000806040838503121561112b57600080fd5b60006111398582860161109b565b925050602061114a858286016110da565b9150509250929050565b6000806040838503121561116757600080fd5b600083013567ffffffffffffffff81111561118157600080fd5b61118d858286016110b0565b925050602083013567ffffffffffffffff8111156111aa57600080fd5b6111b6858286016110b0565b9150509250929050565b600080600080608085870312156111d657600080fd5b600085013567ffffffffffffffff8111156111f057600080fd5b6111fc878288016110b0565b945050602061120d878288016110da565b935050604061121e878288016110da565b925050606061122f878288016110da565b91505092959194509250565b60006020828403121561124d57600080fd5b600061125b848285016110da565b91505092915050565b61126d816116ec565b82525050565b61127c816116fe565b82525050565b600061128d8261167a565b6112978185611685565b93506112a7818560208601611743565b6112b0816118af565b840191505092915050565b60006112c8601b83611685565b91506112d3826118c0565b602082019050919050565b60006112eb602483611685565b91506112f6826118e9565b604082019050919050565b600061130e601783611685565b915061131982611938565b602082019050919050565b6000611331603383611685565b915061133c82611961565b604082019050919050565b6000611354602f83611685565b915061135f826119b0565b604082019050919050565b6000611377601d83611685565b9150611382826119ff565b602082019050919050565b600061139a602e83611685565b91506113a582611a28565b604082019050919050565b60006113bd603483611685565b91506113c882611a77565b604082019050919050565b6113dc8161172a565b82525050565b60006020820190506113f76000830184611264565b92915050565b60006060820190506114126000830186611264565b61141f6020830185611264565b61142c60408301846113d3565b949350505050565b60006040820190506114496000830185611264565b61145660208301846113d3565b9392505050565b60006020820190506114726000830184611273565b92915050565b600060408201905081810360008301526114928185611282565b905081810360208301526114a68184611282565b90509392505050565b600060a08201905081810360008301526114c98188611282565b90506114d860208301876113d3565b6114e560408301866113d3565b6114f260608301856113d3565b6114ff60808301846113d3565b9695505050505050565b60006020820190508181036000830152611522816112bb565b9050919050565b60006020820190508181036000830152611542816112de565b9050919050565b6000602082019050818103600083015261156281611301565b9050919050565b6000602082019050818103600083015261158281611324565b9050919050565b600060208201905081810360008301526115a281611347565b9050919050565b600060208201905081810360008301526115c28161136a565b9050919050565b600060208201905081810360008301526115e28161138d565b9050919050565b60006020820190508181036000830152611602816113b0565b9050919050565b600060208201905061161e60008301846113d3565b92915050565b600061162e61163f565b905061163a82826117a8565b919050565b6000604051905090565b600067ffffffffffffffff82111561166457611663611880565b5b61166d826118af565b9050602081019050919050565b600081519050919050565b600082825260208201905092915050565b60006116a18261172a565b91506116ac8361172a565b9250827fffffffffffffffffffffffffffffffffffffffffffffffffffffffffffffffff038211156116e1576116e0611822565b5b828201905092915050565b60006116f78261170a565b9050919050565b60008115159050919050565b600073ffffffffffffffffffffffffffffffffffffffff82169050919050565b6000819050919050565b82818337600083830152505050565b60005b83811015611761578082015181840152602081019050611746565b83811115611770576000848401525b50505050565b6000600282049050600182168061178e57607f821691505b602082108114156117a2576117a1611851565b5b50919050565b6117b1826118af565b810181811067ffffffffffffffff821117156117d0576117cf611880565b5b80604052505050565b60006117e48261172a565b91507fffffffffffffffffffffffffffffffffffffffffffffffffffffffffffffffff82141561181757611816611822565b5b600182019050919050565b7f4e487b7100000000000000000000000000000000000000000000000000000000600052601160045260246000fd5b7f4e487b7100000000000000000000000000000000000000000000000000000000600052602260045260246000fd5b7f4e487b7100000000000000000000000000000000000000000000000000000000600052604160045260246000fd5b6000601f19601f8301169050919050565b7f596f752063616e206a757374207265676973746572206f6e6365210000000000600082015250565b7f596f7520616c726561647920766f74656420666f72207468697320656c65637460008201527f696f6e2100000000000000000000000000000000000000000000000000000000602082015250565b7f456c656374696f6e20646f65736e277420657869737421000000000000000000600082015250565b7f546869732063616e646964617465206973206e6f74207265676973746572656460008201527f20666f72207468697320656c656374696f6e2100000000000000000000000000602082015250565b7f43616e64696461746520616c7265616479207265676973746572656420666f7260008201527f207468697320656c656374696f6e210000000000000000000000000000000000602082015250565b7f5369676e20757020617320612063616e64696461746520666972737421000000600082015250565b7f54686520766f74696e6720706572696f6420666f72207468697320656c65637460008201527f696f6e20697320636c6f73656421000000000000000000000000000000000000602082015250565b7f54686520726567697374726174696f6e20706572696f6420666f72207468697360008201527f20656c656374696f6e20697320636c6f73656421000000000000000000000000602082015250565b611acf816116ec565b8114611ada57600080fd5b50565b611ae68161172a565b8114611af157600080fd5b5056fea2646970667358221220464825fbfafa96829225167544e658764584c3073b2bab6cdc571fccab690c6d64736f6c63430008040033",
  "linkReferences": {},
  "deployedLinkReferences": {}
}