{
  "_format": "hh-sol-artifact-1",
  "contractName": "Voting",
  "sourceName": "contracts/Voting.sol",
  "abi": [
    {
      "inputs": [],
      "stateMutability": "nonpayable",
      "type": "constructor"
    },
    {
      "anonymous": false,
      "inputs": [
        {
          "indexed": false,
          "internalType": "address",
          "name": "candidateAddress",
          "type": "address"
        },
        {
          "indexed": false,
          "internalType": "uint256",
          "name": "electionId",
          "type": "uint256"
        }
      ],
      "name": "CandidateAdded",
      "type": "event"
    },
    {
      "anonymous": false,
      "inputs": [
        {
          "indexed": false,
          "internalType": "uint256",
          "name": "electionId",
          "type": "uint256"
        }
      ],
      "name": "ElectionAdded",
      "type": "event"
    },
    {
      "anonymous": false,
      "inputs": [
        {
          "indexed": false,
          "internalType": "address",
          "name": "candidate",
          "type": "address"
        }
      ],
      "name": "SignedAsCandidate",
      "type": "event"
    },
    {
      "anonymous": false,
      "inputs": [
        {
          "indexed": false,
          "internalType": "address",
          "name": "voter",
          "type": "address"
        },
        {
          "indexed": false,
          "internalType": "address",
          "name": "candidate",
          "type": "address"
        },
        {
          "indexed": false,
          "internalType": "uint256",
          "name": "electionId",
          "type": "uint256"
        }
      ],
      "name": "VotedForCandidate",
      "type": "event"
    },
    {
      "inputs": [],
      "name": "_electionCounter",
      "outputs": [
        {
          "internalType": "uint256",
          "name": "_value",
          "type": "uint256"
        }
      ],
      "stateMutability": "view",
      "type": "function"
    },
    {
      "inputs": [
        {
          "internalType": "address",
          "name": "",
          "type": "address"
        },
        {
          "internalType": "uint256",
          "name": "",
          "type": "uint256"
        }
      ],
      "name": "candidateInElection",
      "outputs": [
        {
          "internalType": "bool",
          "name": "",
          "type": "bool"
        }
      ],
      "stateMutability": "view",
      "type": "function"
    },
    {
      "inputs": [
        {
          "internalType": "address",
          "name": "candidateAddress",
          "type": "address"
        },
        {
          "internalType": "uint256",
          "name": "electionId",
          "type": "uint256"
        }
      ],
      "name": "candidateIsInElection",
      "outputs": [
        {
          "internalType": "bool",
          "name": "",
          "type": "bool"
        }
      ],
      "stateMutability": "view",
      "type": "function"
    },
    {
      "inputs": [
        {
          "internalType": "address",
          "name": "",
          "type": "address"
        }
      ],
      "name": "candidates",
      "outputs": [
        {
          "internalType": "string",
          "name": "name",
          "type": "string"
        },
        {
          "internalType": "string",
          "name": "surname",
          "type": "string"
        }
      ],
      "stateMutability": "view",
      "type": "function"
    },
    {
      "inputs": [
        {
          "internalType": "uint256",
          "name": "",
          "type": "uint256"
        }
      ],
      "name": "candidatesInElectionCount",
      "outputs": [
        {
          "internalType": "uint256",
          "name": "_value",
          "type": "uint256"
        }
      ],
      "stateMutability": "view",
      "type": "function"
    },
    {
      "inputs": [
        {
          "internalType": "uint256",
          "name": "",
          "type": "uint256"
        },
        {
          "internalType": "uint256",
          "name": "",
          "type": "uint256"
        }
      ],
      "name": "electionCandidates",
      "outputs": [
        {
          "internalType": "address",
          "name": "",
          "type": "address"
        }
      ],
      "stateMutability": "view",
      "type": "function"
    },
    {
      "inputs": [
        {
          "internalType": "uint256",
          "name": "",
          "type": "uint256"
        }
      ],
      "name": "elections",
      "outputs": [
        {
          "internalType": "string",
          "name": "electionName",
          "type": "string"
        },
        {
          "internalType": "uint256",
          "name": "electionStart",
          "type": "uint256"
        },
        {
          "internalType": "uint256",
          "name": "registrationPeriod",
          "type": "uint256"
        },
        {
          "internalType": "uint256",
          "name": "votingPeriod",
          "type": "uint256"
        },
        {
          "internalType": "uint256",
          "name": "endingTime",
          "type": "uint256"
        }
      ],
      "stateMutability": "view",
      "type": "function"
    },
    {
      "inputs": [
        {
          "internalType": "address",
          "name": "candidateAddress",
          "type": "address"
        },
        {
          "internalType": "uint256",
          "name": "electionId",
          "type": "uint256"
        }
      ],
      "name": "getCandidateVotes",
      "outputs": [
        {
          "internalType": "uint256",
          "name": "",
          "type": "uint256"
        }
      ],
      "stateMutability": "view",
      "type": "function"
    },
    {
      "inputs": [
        {
          "internalType": "uint256",
          "name": "electionId",
          "type": "uint256"
        }
      ],
      "name": "getCandidatesInElection",
      "outputs": [
        {
          "internalType": "address[]",
          "name": "",
          "type": "address[]"
        }
      ],
      "stateMutability": "view",
      "type": "function"
    },
    {
      "inputs": [
        {
          "internalType": "uint256",
          "name": "electionId",
          "type": "uint256"
        }
      ],
      "name": "registerToElection",
      "outputs": [],
      "stateMutability": "nonpayable",
      "type": "function"
    },
    {
      "inputs": [
        {
          "internalType": "string",
          "name": "name",
          "type": "string"
        },
        {
          "internalType": "string",
          "name": "surname",
          "type": "string"
        }
      ],
      "name": "signUpAsCandidate",
      "outputs": [],
      "stateMutability": "nonpayable",
      "type": "function"
    },
    {
      "inputs": [
        {
          "internalType": "string",
          "name": "electionName",
          "type": "string"
        },
        {
          "internalType": "uint256",
          "name": "registrationPeriod",
          "type": "uint256"
        },
        {
          "internalType": "uint256",
          "name": "votingPeriod",
          "type": "uint256"
        },
        {
          "internalType": "uint256",
          "name": "endingTime",
          "type": "uint256"
        }
      ],
      "name": "startElection",
      "outputs": [],
      "stateMutability": "nonpayable",
      "type": "function"
    },
    {
      "inputs": [
        {
          "internalType": "address",
          "name": "candidateAddress",
          "type": "address"
        },
        {
          "internalType": "uint256",
          "name": "electionId",
          "type": "uint256"
        }
      ],
      "name": "voteForCandidate",
      "outputs": [],
      "stateMutability": "nonpayable",
      "type": "function"
    }
  ],
  "bytecode": "0x608060405234801561001057600080fd5b50611eb8806100206000396000f3fe608060405234801561001057600080fd5b50600436106100cf5760003560e01c80638ab66a901161008c578063a8ce145711610066578063a8ce14571461024f578063bcfb64eb1461026b578063d33049581461029b578063d34e6494146102cb576100cf565b80638ab66a90146101d2578063a42c56f714610203578063a85144f414610233576100cf565b806309e23abc146100d4578063309144231461010457806352ca14b2146101345780635e6fef0114610164578063635e2caa146101985780636c9f9d49146101b4575b600080fd5b6100ee60048036038101906100e991906114ad565b6102e7565b6040516100fb919061195e565b60405180910390f35b61011e6004803603810190610119919061138a565b610305565b60405161012b91906117b2565b60405180910390f35b61014e6004803603810190610149919061138a565b610334565b60405161015b919061195e565b60405180910390f35b61017e600480360381019061017991906114ad565b61038f565b60405161018f959493929190611804565b60405180910390f35b6101b260048036038101906101ad91906113c6565b61044d565b005b6101bc61069b565b6040516101c9919061195e565b60405180910390f35b6101ec60048036038101906101e79190611361565b6106a7565b6040516101fa9291906117cd565b60405180910390f35b61021d600480360381019061021891906114d6565b6107db565b60405161022a9190611715565b60405180910390f35b61024d6004803603810190610248919061138a565b610829565b005b610269600480360381019061026491906114ad565b610c36565b005b610285600480360381019061028091906114ad565b610fef565b6040516102929190611790565b60405180910390f35b6102b560048036038101906102b0919061138a565b611090565b6040516102c291906117b2565b60405180910390f35b6102e560048036038101906102e09190611432565b6110f8565b005b60066020528060005260406000206000915090508060000154905081565b60016020528160005260406000206020528060005260406000206000915091509054906101000a900460ff1681565b6000600460008473ffffffffffffffffffffffffffffffffffffffff1673ffffffffffffffffffffffffffffffffffffffff168152602001908152602001600020600083815260200190815260200160002054905092915050565b60076020528060005260406000206000915090508060000180546103b290611b04565b80601f01602080910402602001604051908101604052809291908181526020018280546103de90611b04565b801561042b5780601f106104005761010080835404028352916020019161042b565b820191906000526020600020905b81548152906001019060200180831161040e57829003601f168201915b5050505050908060010154908060020154908060030154908060040154905085565b33600080156104e757600360008373ffffffffffffffffffffffffffffffffffffffff1673ffffffffffffffffffffffffffffffffffffffff16815260200190815260200160002060009054906101000a900460ff166104e2576040517f08c379a00000000000000000000000000000000000000000000000000000000081526004016104d9906118fe565b60405180910390fd5b610575565b600360008373ffffffffffffffffffffffffffffffffffffffff1673ffffffffffffffffffffffffffffffffffffffff16815260200190815260200160002060009054906101000a900460ff1615610574576040517f08c379a000000000000000000000000000000000000000000000000000000000815260040161056b9061185e565b60405180910390fd5b5b6001600360003373ffffffffffffffffffffffffffffffffffffffff1673ffffffffffffffffffffffffffffffffffffffff16815260200190815260200160002060006101000a81548160ff021916908315150217905550604051806040016040528085815260200184815250600860003373ffffffffffffffffffffffffffffffffffffffff1673ffffffffffffffffffffffffffffffffffffffff168152602001908152602001600020600082015181600001908051906020019061063d92919061122c565b50602082015181600101908051906020019061065a92919061122c565b509050507f8297da8dab4bf97ad720cb88f0acf97409a610e95483cf3de20a6d3c475c106e3360405161068d9190611715565b60405180910390a150505050565b60008060000154905081565b60086020528060005260406000206000915090508060000180546106ca90611b04565b80601f01602080910402602001604051908101604052809291908181526020018280546106f690611b04565b80156107435780601f1061071857610100808354040283529160200191610743565b820191906000526020600020905b81548152906001019060200180831161072657829003601f168201915b50505050509080600101805461075890611b04565b80601f016020809104026020016040519081016040528092919081815260200182805461078490611b04565b80156107d15780601f106107a6576101008083540402835291602001916107d1565b820191906000526020600020905b8154815290600101906020018083116107b457829003601f168201915b5050505050905082565b600260205281600052604060002081815481106107f757600080fd5b906000526020600020016000915091509054906101000a900473ffffffffffffffffffffffffffffffffffffffff1681565b81600180156108c357600360008373ffffffffffffffffffffffffffffffffffffffff1673ffffffffffffffffffffffffffffffffffffffff16815260200190815260200160002060009054906101000a900460ff166108be576040517f08c379a00000000000000000000000000000000000000000000000000000000081526004016108b5906118fe565b60405180910390fd5b610951565b600360008373ffffffffffffffffffffffffffffffffffffffff1673ffffffffffffffffffffffffffffffffffffffff16815260200190815260200160002060009054906101000a900460ff1615610950576040517f08c379a00000000000000000000000000000000000000000000000000000000081526004016109479061185e565b60405180910390fd5b5b6007600084815260200190815260200160002060030154600760008581526020019081526020016000206002015460076000868152602001908152602001600020600101546109a09190611a24565b6109aa9190611a24565b42106109eb576040517f08c379a00000000000000000000000000000000000000000000000000000000081526004016109e29061191e565b60405180910390fd5b600560003373ffffffffffffffffffffffffffffffffffffffff1673ffffffffffffffffffffffffffffffffffffffff168152602001908152602001600020600084815260200190815260200160002060009054906101000a900460ff1615610a89576040517f08c379a0000000000000000000000000000000000000000000000000000000008152600401610a809061187e565b60405180910390fd5b600160008573ffffffffffffffffffffffffffffffffffffffff1673ffffffffffffffffffffffffffffffffffffffff168152602001908152602001600020600084815260200190815260200160002060009054906101000a900460ff16610b26576040517f08c379a0000000000000000000000000000000000000000000000000000000008152600401610b1d906118be565b60405180910390fd5b600460008573ffffffffffffffffffffffffffffffffffffffff1673ffffffffffffffffffffffffffffffffffffffff16815260200190815260200160002060008481526020019081526020016000206000815480929190610b8790611b67565b91905055506001600560003373ffffffffffffffffffffffffffffffffffffffff1673ffffffffffffffffffffffffffffffffffffffff168152602001908152602001600020600085815260200190815260200160002060006101000a81548160ff0219169083151502179055507f15ac61fb53be5e565435ec1280e1bc6bf3592d32144c0e698ec8a4c6aeafbbfd338585604051610c2893929190611730565b60405180910390a150505050565b3360018015610cd057600360008373ffffffffffffffffffffffffffffffffffffffff1673ffffffffffffffffffffffffffffffffffffffff16815260200190815260200160002060009054906101000a900460ff16610ccb576040517f08c379a0000000000000000000000000000000000000000000000000000000008152600401610cc2906118fe565b60405180910390fd5b610d5e565b600360008373ffffffffffffffffffffffffffffffffffffffff1673ffffffffffffffffffffffffffffffffffffffff16815260200190815260200160002060009054906101000a900460ff1615610d5d576040517f08c379a0000000000000000000000000000000000000000000000000000000008152600401610d549061185e565b60405180910390fd5b5b6009600084815260200190815260200160002060009054906101000a900460ff16610dbe576040517f08c379a0000000000000000000000000000000000000000000000000000000008152600401610db59061189e565b60405180910390fd5b60076000848152602001908152602001600020600201546007600085815260200190815260200160002060010154610df69190611a24565b4210610e37576040517f08c379a0000000000000000000000000000000000000000000000000000000008152600401610e2e9061193e565b60405180910390fd5b600160003373ffffffffffffffffffffffffffffffffffffffff1673ffffffffffffffffffffffffffffffffffffffff168152602001908152602001600020600084815260200190815260200160002060009054906101000a900460ff1615610ed5576040517f08c379a0000000000000000000000000000000000000000000000000000000008152600401610ecc906118de565b60405180910390fd5b60018060003373ffffffffffffffffffffffffffffffffffffffff1673ffffffffffffffffffffffffffffffffffffffff168152602001908152602001600020600085815260200190815260200160002060006101000a81548160ff02191690831515021790555060026000848152602001908152602001600020339080600181540180825580915050600190039060005260206000200160009091909190916101000a81548173ffffffffffffffffffffffffffffffffffffffff021916908373ffffffffffffffffffffffffffffffffffffffff1602179055507f32581d4a78c1456ab6ce9fb0954e9ce683965a580b3b21841367c105dad7a3133384604051610fe2929190611767565b60405180910390a1505050565b60606002600083815260200190815260200160002080548060200260200160405190810160405280929190818152602001828054801561108457602002820191906000526020600020905b8160009054906101000a900473ffffffffffffffffffffffffffffffffffffffff1673ffffffffffffffffffffffffffffffffffffffff168152602001906001019080831161103a575b50505050509050919050565b6000600160008473ffffffffffffffffffffffffffffffffffffffff1673ffffffffffffffffffffffffffffffffffffffff168152602001908152602001600020600083815260200190815260200160002060009054906101000a900460ff16905092915050565b6040518060a00160405280858152602001428152602001848152602001838152602001828152506007600061112d6000611208565b8152602001908152602001600020600082015181600001908051906020019061115792919061122c565b50602082015181600101556040820151816002015560608201518160030155608082015181600401559050506001600960006111936000611208565b815260200190815260200160002060006101000a81548160ff0219169083151502179055507f1bf15a77976c7cfe0328ab6cf270def21d86b57877ccbbb36de31b545d40dea26111e36000611208565b6040516111f0919061195e565b60405180910390a16112026000611216565b50505050565b600081600001549050919050565b6001816000016000828254019250508190555050565b82805461123890611b04565b90600052602060002090601f01602090048101928261125a57600085556112a1565b82601f1061127357805160ff19168380011785556112a1565b828001600101855582156112a1579182015b828111156112a0578251825591602001919060010190611285565b5b5090506112ae91906112b2565b5090565b5b808211156112cb5760008160009055506001016112b3565b5090565b60006112e26112dd8461199e565b611979565b9050828152602081018484840111156112fa57600080fd5b611305848285611ac2565b509392505050565b60008135905061131c81611e54565b92915050565b600082601f83011261133357600080fd5b81356113438482602086016112cf565b91505092915050565b60008135905061135b81611e6b565b92915050565b60006020828403121561137357600080fd5b60006113818482850161130d565b91505092915050565b6000806040838503121561139d57600080fd5b60006113ab8582860161130d565b92505060206113bc8582860161134c565b9150509250929050565b600080604083850312156113d957600080fd5b600083013567ffffffffffffffff8111156113f357600080fd5b6113ff85828601611322565b925050602083013567ffffffffffffffff81111561141c57600080fd5b61142885828601611322565b9150509250929050565b6000806000806080858703121561144857600080fd5b600085013567ffffffffffffffff81111561146257600080fd5b61146e87828801611322565b945050602061147f8782880161134c565b93505060406114908782880161134c565b92505060606114a18782880161134c565b91505092959194509250565b6000602082840312156114bf57600080fd5b60006114cd8482850161134c565b91505092915050565b600080604083850312156114e957600080fd5b60006114f78582860161134c565b92505060206115088582860161134c565b9150509250929050565b600061151e838361152a565b60208301905092915050565b61153381611a7a565b82525050565b61154281611a7a565b82525050565b6000611553826119df565b61155d8185611a02565b9350611568836119cf565b8060005b838110156115995781516115808882611512565b975061158b836119f5565b92505060018101905061156c565b5085935050505092915050565b6115af81611a8c565b82525050565b60006115c0826119ea565b6115ca8185611a13565b93506115da818560208601611ad1565b6115e381611c3d565b840191505092915050565b60006115fb601b83611a13565b915061160682611c4e565b602082019050919050565b600061161e602483611a13565b915061162982611c77565b604082019050919050565b6000611641601783611a13565b915061164c82611cc6565b602082019050919050565b6000611664603383611a13565b915061166f82611cef565b604082019050919050565b6000611687602f83611a13565b915061169282611d3e565b604082019050919050565b60006116aa601d83611a13565b91506116b582611d8d565b602082019050919050565b60006116cd602e83611a13565b91506116d882611db6565b604082019050919050565b60006116f0603483611a13565b91506116fb82611e05565b604082019050919050565b61170f81611ab8565b82525050565b600060208201905061172a6000830184611539565b92915050565b60006060820190506117456000830186611539565b6117526020830185611539565b61175f6040830184611706565b949350505050565b600060408201905061177c6000830185611539565b6117896020830184611706565b9392505050565b600060208201905081810360008301526117aa8184611548565b905092915050565b60006020820190506117c760008301846115a6565b92915050565b600060408201905081810360008301526117e781856115b5565b905081810360208301526117fb81846115b5565b90509392505050565b600060a082019050818103600083015261181e81886115b5565b905061182d6020830187611706565b61183a6040830186611706565b6118476060830185611706565b6118546080830184611706565b9695505050505050565b60006020820190508181036000830152611877816115ee565b9050919050565b6000602082019050818103600083015261189781611611565b9050919050565b600060208201905081810360008301526118b781611634565b9050919050565b600060208201905081810360008301526118d781611657565b9050919050565b600060208201905081810360008301526118f78161167a565b9050919050565b600060208201905081810360008301526119178161169d565b9050919050565b60006020820190508181036000830152611937816116c0565b9050919050565b60006020820190508181036000830152611957816116e3565b9050919050565b60006020820190506119736000830184611706565b92915050565b6000611983611994565b905061198f8282611b36565b919050565b6000604051905090565b600067ffffffffffffffff8211156119b9576119b8611c0e565b5b6119c282611c3d565b9050602081019050919050565b6000819050602082019050919050565b600081519050919050565b600081519050919050565b6000602082019050919050565b600082825260208201905092915050565b600082825260208201905092915050565b6000611a2f82611ab8565b9150611a3a83611ab8565b9250827fffffffffffffffffffffffffffffffffffffffffffffffffffffffffffffffff03821115611a6f57611a6e611bb0565b5b828201905092915050565b6000611a8582611a98565b9050919050565b60008115159050919050565b600073ffffffffffffffffffffffffffffffffffffffff82169050919050565b6000819050919050565b82818337600083830152505050565b60005b83811015611aef578082015181840152602081019050611ad4565b83811115611afe576000848401525b50505050565b60006002820490506001821680611b1c57607f821691505b60208210811415611b3057611b2f611bdf565b5b50919050565b611b3f82611c3d565b810181811067ffffffffffffffff82111715611b5e57611b5d611c0e565b5b80604052505050565b6000611b7282611ab8565b91507fffffffffffffffffffffffffffffffffffffffffffffffffffffffffffffffff821415611ba557611ba4611bb0565b5b600182019050919050565b7f4e487b7100000000000000000000000000000000000000000000000000000000600052601160045260246000fd5b7f4e487b7100000000000000000000000000000000000000000000000000000000600052602260045260246000fd5b7f4e487b7100000000000000000000000000000000000000000000000000000000600052604160045260246000fd5b6000601f19601f8301169050919050565b7f596f752063616e206a757374207265676973746572206f6e6365210000000000600082015250565b7f596f7520616c726561647920766f74656420666f72207468697320656c65637460008201527f696f6e2100000000000000000000000000000000000000000000000000000000602082015250565b7f456c656374696f6e20646f65736e277420657869737421000000000000000000600082015250565b7f546869732063616e646964617465206973206e6f74207265676973746572656460008201527f20666f72207468697320656c656374696f6e2100000000000000000000000000602082015250565b7f43616e64696461746520616c7265616479207265676973746572656420666f7260008201527f207468697320656c656374696f6e210000000000000000000000000000000000602082015250565b7f5369676e20757020617320612063616e64696461746520666972737421000000600082015250565b7f54686520766f74696e6720706572696f6420666f72207468697320656c65637460008201527f696f6e20697320636c6f73656421000000000000000000000000000000000000602082015250565b7f54686520726567697374726174696f6e20706572696f6420666f72207468697360008201527f20656c656374696f6e20697320636c6f73656421000000000000000000000000602082015250565b611e5d81611a7a565b8114611e6857600080fd5b50565b611e7481611ab8565b8114611e7f57600080fd5b5056fea2646970667358221220ee87433fbb269efdbdb6728341cfaba0d327c15af1600351acb71598e9610eef64736f6c63430008040033",
  "linkReferences": {},
  "deployedLinkReferences": {}
}